S015000066696E616C5F70726F6A6563742E73726563AF
S11300000C942A000C9418010C9441010C94720174
S11300100C943C000C943C000C943C000C943C006C
S11300200C943C000C943C000C943C000C94A301F4
S11300300C943C000C943C000C943C000C943C004C
S11300400C943C000C943C000C943C000C943C003C
S11300500C943C0011241FBECFE5D8E0DEBFCDBF19
S113006020E0A0E6B0E001C01D92AE36B207E1F791
S11300700E9465020C9484020C940000813001F10A
S113008030F08230B1F1833009F44CC0089541114D
S11300900CC02AB381E090E002C0880F991F6A95D2
S11300A0E2F7809582238ABB08952AB381E090E029
S11300B002C0880F991F6A95E2F7822B8ABB0895C4
S11300C041110CC027B381E090E002C0880F991F52
S11300D06A95E2F78095822387BB089527B381E070
S11300E090E002C0880F991F6A95E2F7822B87BBC4
S11300F0089541110CC024B381E090E002C0880F40
S1130100991F6A95E2F78095822384BB089524B3EE
S113011081E090E002C0880F991F6A95E2F7822B74
S113012084BB089541110CC021B381E090E002C06A
S1130130880F991F6A95E2F78095822381BB089501
S113014021B381E090E002C0880F991F6A95E2F71D
S1130150822B81BB0895813001F130F08230B1F1FE
S1130160833009F44CC0089541110CC02BB381E0D5
S113017090E002C0880F991F6A95E2F78095822368
S11301808BBB08952BB381E090E002C0880F991FC8
S11301906A95E2F7822B8BBB089541110CC028B3FA
S11301A081E090E002C0880F991F6A95E2F780957C
S11301B0822388BB089528B381E090E002C0880FB1
S11301C0991F6A95E2F7822B88BB089541110CC0F0
S11301D025B381E090E002C0880F991F6A95E2F789
S11301E08095822385BB089525B381E090E002C009
S11301F0880F991F6A95E2F7822B85BB08954111F8
S11302000CC022B381E090E002C0880F991F6A9568
S1130210E2F78095822382BB089522B381E090E0C7
S113022002C0880F991F6A95E2F7822B82BB08955A
S11302301F920F920FB60F9211242F933F934F9357
S11302405F936F937F938F939F93AF93BF93EF933A
S1130250FF93E0916400F0916500309709F00995EF
S1130260FF91EF91BF91AF919F918F917F916F918A
S11302705F914F913F912F910F900FBE0F901F9060
S113028018951F920F920FB60F9211242F933F933C
S11302904F935F936F937F938F939F93AF93BF938A
S11302A0EF93FF938091620090916300892B49F052
S11302B0E0916400F091650009951092630010923A
S11302C06200FF91EF91BF91AF919F918F917F91C8
S11302D06F915F914F913F912F910F900FBE0F90AF
S11302E01F9018951F920F920FB60F9211242F93FF
S11302F03F934F935F936F937F938F939F93AF93AA
S1130300BF93EF93FF938091600090916100892BDC
S113031049F0E0916400F091650009951092610044
S113032010926000FF91EF91BF91AF919F918F91D7
S11303307F916F915F914F913F912F910F900FBEDD
S11303400F901F9018951F920F920FB60F921124C1
S11303502F933F934F935F936F937F938F939F93C9
S1130360AF93BF93EF93FF93E0916600F091670022
S11303703097E9F1809168008130F1F420916900AF
S113038030916A0080916B0090916C0028173907B6
S113039049F4099510926A0010926900109267005E
S11303A0109266008091690090916A000196909382
S11303B06A00809369001BC08230C9F480916B008D
S11303C090916C0099272091690030916A008217FE
S11303D0930769F4099510926A001092690080915C
S11303E06D00819582BF1092670010926600FF91A4
S11303F0EF91BF91AF919F918F917F916F915F9199
S11304004F913F912F910F900FBE0F901F90189511
S113041081B5886081BD089581B5816081BD81B554
S1130420826081BD81B5846081BD089541E062E050
S113043082E00E943E0041E067E082E00E943E00CC
S113044041E063E083E00E943E0040E062E082E03D
S11304500E94AB0040E067E082E00E94AB0040E015
S113046063E083E00E94AB000895813051F018F0FE
S1130470823069F0089541E062E082E00E94AB00BE
S1130480089541E067E082E00E94AB00089541E0F6
S113049063E083E00E94AB000895813051F018F0CE
S11304A0823069F0089540E062E082E00E94AB008F
S11304B0089540E067E082E00E94AB00089540E0C8
S11304C063E083E00E94AB0008950E9408020E944A
S11304D00C020E94160280E00E9435022FE986E891
S11304E091E0215080409040E1F700C0000080E09E
S11304F00E944D022FE986E891E02150804090400F
S10F0500E1F700C00000FFCFF894FFCF2B
S9030000FC
