S015000066696E616C5F70726F6A6563742E73726563AF
S11300000C942A000C945D010C9486010C94B701A5
S11300100C943C000C943C000C943C000C943C006C
S11300200C943C000C943C000C943C000C944E0248
S11300300C943C000C943C000C943C000C943C004C
S11300400C943C000C943C000C943C000C943C003C
S11300500C943C0011241FBECFE5D8E0DEBFCDBF19
S113006020E0A0E6B0E001C01D92AF36B207E1F790
S11300700E9482030C9417060C940000813001F155
S113008030F08230B1F1833009F44CC0089541114D
S11300900CC02AB381E090E002C0880F991F6A95D2
S11300A0E2F7809582238ABB08952AB381E090E029
S11300B002C0880F991F6A95E2F7822B8ABB0895C4
S11300C041110CC027B381E090E002C0880F991F52
S11300D06A95E2F78095822387BB089527B381E070
S11300E090E002C0880F991F6A95E2F7822B87BBC4
S11300F0089541110CC024B381E090E002C0880F40
S1130100991F6A95E2F78095822384BB089524B3EE
S113011081E090E002C0880F991F6A95E2F7822B74
S113012084BB089541110CC021B381E090E002C06A
S1130130880F991F6A95E2F78095822381BB089501
S113014021B381E090E002C0880F991F6A95E2F71D
S1130150822B81BB0895813001F130F08230B1F1FE
S1130160833009F44CC0089541110CC02BB381E0D5
S113017090E002C0880F991F6A95E2F78095822368
S11301808BBB08952BB381E090E002C0880F991FC8
S11301906A95E2F7822B8BBB089541110CC028B3FA
S11301A081E090E002C0880F991F6A95E2F780957C
S11301B0822388BB089528B381E090E002C0880FB1
S11301C0991F6A95E2F7822B88BB089541110CC0F0
S11301D025B381E090E002C0880F991F6A95E2F789
S11301E08095822385BB089525B381E090E002C009
S11301F0880F991F6A95E2F7822B85BB08954111F8
S11302000CC022B381E090E002C0880F991F6A9568
S1130210E2F78095822382BB089522B381E090E0C7
S113022002C0880F991F6A95E2F7822B82BB08955A
S11302308FB780688FBF0895813061F018F08230E5
S1130240C1F008958BB780648BBF85B78C7F682B12
S113025065BF08958BB780688BBF85B7837F70E0D7
S1130260660F771F660F771F682B85B7682B65BFEE
S113027008958BB780628BBF633021F484B78064A8
S113028084BF0895623019F484B78F7B84BF0895C6
S1130290613049F018F0623059F008959093650088
S11302A0809364000895909363008093620008959E
S11302B0909361008093600008951F920F920FB68F
S11302C00F9211242F933F934F935F936F937F93D8
S11302D08F939F93AF93BF93EF93FF93E091640049
S11302E0F0916500309709F00995FF91EF91BF9166
S11302F0AF919F918F917F916F915F914F913F91BA
S11303002F910F900FBE0F901F9018951F920F9270
S11303100FB60F9211242F933F934F935F936F93D4
S11303207F938F939F93AF93BF93EF93FF938091AA
S1130330620090916300892B49F0E0916400F09190
S1130340650009951092630010926200FF91EF918D
S1130350BF91AF919F918F917F916F915F914F91D9
S11303603F912F910F900FBE0F901F9018951F92E1
S11303700F920FB60F9211242F933F934F935F93D5
S11303806F937F938F939F93AF93BF93EF93FF9359
S11303908091600090916100892B49F0E0916400A4
S11303A0F091650009951092610010926000FF9130
S11303B0EF91BF91AF919F918F917F916F915F91D9
S11303C04F913F912F910F900FBE0F901F90189552
S11303D0CF92DF92EF92FF929C0136952795369546
S11303E0279536952795A5ECB0E20E9408069295CC
S11303F082958F7089279F708927BC0180E090E0E7
S11304000E94AB042DEB37E346E85CE30E940A0448
S11304106B017C010E947C0470936D0060936C00FE
S113042020E030E048EC52E4C701B6010E949B058D
S113043020E030E048EC52E40E94F3040E947C0483
S113044060936E0084E083BF80916E0082BF11C010
S113045008B600FEFDCF80916E0082BF80916900D6
S113046090916A00019690936A008093690081E0FC
S113047088BF2091690030916A0080916C0090914E
S11304806D002817390720F313BE10926A001092EA
S11304906900FF90EF90DF90CF9008951F920F9224
S11304A00FB60F9211242F933F934F935F936F9343
S11304B07F938F939F93AF93BF93EF93FF93E091B9
S11304C06600F09167003097E9F18091680081300F
S11304D0F1F42091690030916A0080916C00909150
S11304E06D002817390749F4099510926A00109293
S11304F069001092670010926600809169009091E3
S11305006A00019690936A00809369001BC0823050
S1130510C9F480916C0090916D0099272091690035
S113052030916A008217930769F4099510926A0062
S11305301092690080916E00819582BF10926700CD
S113054010926600FF91EF91BF91AF919F918F91AF
S11305507F916F915F914F913F912F910F900FBEBB
S11305600F901F90189541E062E082E00E943E00E7
S113057041E067E082E00E943E0041E063E083E006
S11305800E943E0040E062E082E00E94AB0040E056
S113059067E082E00E94AB0040E063E083E00E94F9
S11305A0AB000895813051F018F0823069F008955D
S11305B041E062E082E00E94AB00089541E067E020
S11305C082E00E94AB00089541E063E083E00E9472
S11305D0AB000895813051F018F0823069F008952D
S11305E040E062E082E00E94AB00089540E067E0F2
S11305F082E00E94AB00089540E063E083E00E9443
S1130600AB00089580916B009FEF980F923008F033
S11306105CC010926B008BB384608BBB81E00E9442
S1130620EA0280E00E94EA0282E00E94EA0281E09B
S11306300E94D2028BB382608BBB88EE93E00E944F
S1130640E80181E00E94EA028BB38D7F8BBB88EEC8
S113065093E00E94E80181E00E94D2028BB38260A1
S11306608BBB88EE93E00E94E80181E00E94EA02DD
S11306708BB38D7F8BBB88EE93E00E94E80181E011
S11306800E94D2028BB382608BBB88EE93E00E94FF
S1130690E80181E00E94EA028BB38D7F8BBB8BB3B0
S11306A081608BBB82E00E94D2028BB38B7F8BBBB9
S11306B088E893E10E94E8018BB38E7F8BBB8BB3F8
S11306C084608BBB84E083BF08958330D1F410929F
S11306D06B0082E00E94EA028BB38B7F8BBB8BB3EF
S11306E081608BBB82E00E94D20288E893E10E9481
S11306F0E8018BB38E7F8BBB8BB384608BBB84E0B0
S113070083BF08958BB384608BBB8AB381608ABB3B
S11307108AB382608ABB8AB384608ABB62E080E069
S11307200E941C0160E082E093E00E9448010E9464
S113073018010E94B3028BB384608BBB81E0809369
S11307406B0080E00E94D20288E893E10E94E801F5
S113075080E00E94EA02C2E0C0936B0081E00E9444
S1130760D20288EE93E00E94E80181E00E94EA024E
S113077088EE93E00E94E80181E00E94D20288EEB4
S113078093E00E94E80181E00E94EA0288EE93E08F
S11307900E94E80181E00E94D20288EE93E00E9468
S11307A0E80181E00E94EA0283E080936B0082E02A
S11307B00E94D20288E893E10E94E80182E00E944C
S11307C0EA02C0936B0081E00E94D20288EE93E0BB
S11307D00E94E80181E00E94EA0288EE93E00E9410
S11307E0E80181E00E94D20288EE93E00E94E801D1
S11307F081E00E94EA0288EE93E00E94E80181E031
S11308000E94D20288EE93E00E94E80181E00E94F7
S1130810EA0291CF0E941E040C9461050E945A05BD
S113082058F00E94530540F029F45F3F29F00C94DE
S11308303C0551110C9495050C9450050E947205C9
S113084068F39923B1F3552391F3951B550BBB27FB
S1130850AA2762177307840738F09F5F5F4F220F40
S1130860331F441FAA1FA9F335D00E2E3AF0E0E837
S113087032D091505040E695001CCAF72BD0FE2F81
S113088029D0660F771F881FBB1F26173707480715
S1130890AB07B0E809F0BB0B802DBF01FF279358CD
S11308A05F4F3AF09E3F510578F00C943C050C9450
S11308B095055F3FE4F3983ED4F386957795679565
S11308C0B795F7959F5FC9F7880F911D9695879502
S11308D097F90895E1E0660F771F881FBB1F621721
S11308E073078407BA0720F0621B730B840BBA0BDF
S11308F0EE1F88F7E09508950E947A0588F09F57C7
S113090098F0B92F9927B751B0F0E1F0660F771F2F
S1130910881F991F1AF0BA95C9F714C0B13091F025
S11309200E949405B1E008950C949405672F782FE4
S11309308827B85F39F0B93FCCF3869577956795EA
S1130940B395D9F73EF490958095709561957F4F56
S11309508F4F9F4F0895E89409C097FB3EF49095FC
S11309608095709561957F4F8F4F9F4F9923A9F084
S1130970F92F96E9BB279395F69587957795679513
S1130980B795F111F8CFFAF4BB0F11F460FF1BC057
S11309906F5F7F4F8F4F9F4F16C0882311F096E9EA
S11309A011C0772321F09EE8872F762F05C0662398
S11309B071F096E8862F70E060E02AF09A95660F51
S11309C0771F881FDAF7880F9695879597F908950A
S11309D00E94530520F019F00E945A0550F40C941B
S11309E050050C949505E92F0E94720588F3552350
S11309F0B1F3E7FB6217730784079507A8F189F33E
S1130A00E92FFF2788232AF03197660F771F881F65
S1130A10DAF7952F5527442332F091505040220F96
S1130A20331F441FD2F7BB27E91BF50B621B730B63
S1130A30840BB109B1F222F4620F731F841FB11D3C
S1130A4031972AF0660F771F881FBB1FEFCF915095
S1130A50504062F041F0882332F0660F771F881F00
S1130A6091505040C1F793950C9442058695779523
S1130A7067959F5FD9F7F7CF97F99F6780E870E094
S1130A8060E008959F3F31F0915020F48795779569
S1130A906795B795880F911D9695879597F9089551
S1130AA09FEF80EC089500240A9416161706180682
S1130AB00906089500240A9412161306140605065E
S1130AC00895092E0394000C11F4882352F0BB0FEF
S1130AD040F4BF2B11F460FF04C06F5F7F4F8F4F52
S1130AE09F4F089557FD9058440F551F59F05F3F8D
S1130AF071F04795880F97FB991F61F09F3F79F03C
S1130B0087950895121613061406551FF2CF4695BD
S1130B10F1DF08C0161617061806991FF1CF86953F
S1130B207105610508940895E894BB276627772723
S1130B30CB0197F908950E94AE050C9461050E94BB
S1130B40530538F00E945A0520F0952311F00C94B7
S1130B503C050C94500511240C9495050E947205D3
S1130B6070F3959FC1F3950F50E0551F629FF001FC
S1130B70729FBB27F00DB11D639FAA27F00DB11D15
S1130B80AA1F649F6627B00DA11D661F829F22279E
S1130B90B00DA11D621F739FB00DA11D621F839F25
S1130BA0A00D611D221F749F3327A00D611D231FFB
S1130BB0849F600D211D822F762F6A2F11249F5749
S1130BC050409AF0F1F088234AF0EE0FFF1FBB1F4C
S1130BD0661F771F881F91505040A9F79E3F51050B
S1130BE080F00C943C050C9495055F3FE4F3983E2B
S1130BF0D4F3869577956795B795F795E7959F5FB5
S1130C00C1F7FE2B880F911D9695879597F9089546
S1130C10A29FB001B39FC001A39F700D811D112439
S1130C20911DB29F700D811D1124911D0895F8949A
S1050C30FFCFF0
S9030000FC
